:020000040800F2
:100000004807002091010008570500084F05000827
:1000100053050008190400082B0A0008000000001E
:100020000000000000000000000000009D05000826
:100030001D0400080000000059050008B106000872
:10004000AB010008AB010008AB010008AB010008E0
:10005000AB010008AB010008AB010008AB010008D0
:10006000AB010008AB010008AB010008AB010008C0
:10007000AB010008AB010008AB010008AB010008B0
:10008000AB010008AB010008AB010008AB010008A0
:10009000AB010008AB010008AB010008AB01000890
:1000A000AB010008AB010008AB010008AB01000880
:1000B000AB010008AB010008AB010008AB01000870
:1000C000AB010008AB010008AB010008AB01000860
:1000D000AB01000841090008AB010008AB010008B2
:1000E000AB010008AB010008AB01000800F002F80A
:1000F00000F03FF80AA090E8000C82448344AAF183
:100100000107DA4501D100F034F8AFF2090EBAE880
:100110000F0013F0010F18BFFB1A43F0010318473B
:10012000C8120000E8120000103A24BF78C878C155
:10013000FAD8520724BF30C830C144BF04680C60ED
:10014000704700000023002400250026103A28BF35
:1001500078C1FBD8520728BF30C148BF0B60704739
:10016000732900F0F780002070471FB51FBD10B540
:1001700010BD00F021F91146FFF7F7FF00F0C6FCB3
:1001800000F03FF903B4FFF7F2FF03BC00F04FFCAF
:100190000948804709480047FEE7FEE7FEE7FEE71B
:1001A000FEE7FEE7FEE7FEE7FEE7FEE70448054957
:1001B000054A064B70470000B5060008ED00000830
:1001C0004801002048070020480300204803002081
:1001D000704700000FB4044910B503AA029800F05C
:1001E000BDF810BC5DF814FB180000202DE9F041AB
:1001F0000E460446002020622046E168884730B35E
:10020000252805D0D4E901219047206A401CF2E757
:10021000E168204600278847050018D0A5F1410075
:10022000192802D820354FF4006732462946204667
:100230002760FFF795FF40B1012804D0F61D26F096
:1002400007060836D8E7361DD6E72846DAE7206ADB
:10025000BDE8F08170B50C460546012A05D0287826
:10026000800600D5EA69002302E0012305E05B1C5B
:10027000934202D2E05C0028F9D1A869E618C01ABE
:10028000A861286A184428622846AFF3008004E079
:10029000D5E9012114F8010B9047B442F8D3284660
:1002A000AFF3008070BD00004FF0013C50F8042B0C
:1002B00051F8043B9A4221D1A2EB0C03934313EA79
:1002C000CC1317D150F8042B51F8043B9A4215D1A6
:1002D000A2EB0C03934313EACC130BD150F8042B7D
:1002E00051F8043B9A4209D1A2EB0C03934313EA61
:1002F000CC13DBD04FF00000704700BFD01A01BA1A
:10030000B1FA81F101F0180122FA01F0CB40C1F1FC
:100310002001DBB2C0B2C01A2CFA01F3D11A91430A
:1003200011EAC311E6D170477047704770477047B4
:1003300010B5436913B1AFF3008001E0FFF78AFF06
:10034000012010BD127800F124010A7000224A70C9
:100350000122EDE711684FF0FF32E9E7074B70B576
:100360000D467B4400F011F80446284600F020F8C2
:1003700010B14FF0FF3070BD204670BD5F07000028
:1003800001694A1C02610878704700B58FB0CDE959
:1003900001310021059105497944CDE90310114649
:1003A0006846FFF723FF0FB000BD0000E5FFFFFF29
:1003B000007B00F080007047754600F029F8AE46DB
:1003C00005006946534620F00700854618B020B561
:1003D000FFF7ECFEBDE820404FF000064FF00007AD
:1003E0004FF000084FF0000B21F00701AC46ACE8DD
:1003F000C009ACE8C009ACE8C009ACE8C0098D464A
:1004000070470446AFF300802046FFF7BBFE0000B4
:1004100000487047E800002000BFFEE770472DE964
:10042000F04102460025002600200023002400277A
:1004300091F803C00CF00F0591F803C00CF0100CFC
:10044000BCF1000F03D091F802C04CEA050591F809
:1004500000C0BCF1000F31D0146800202BE04FF039
:10046000010C0CFA00F3B1F800C00CEA03069E423E
:1004700020D183004FF00F0C0CFA03F7BC4305FAB0
:1004800003FC4CEA040491F803C0BCF1280F06D128
:100490004FF0010C0CFA00FCC2F814C00AE091F80D
:1004A00003C0BCF1480F05D14FF0010C0CFA00FC61
:1004B000C2F810C0401C0828D1D31460B1F800C0A5
:1004C000BCF1FF0F34DD546800202EE000F1080C71
:1004D0004FF0010808FA0CF3B1F800C00CEA03066B
:1004E0009E4221D183004FF00F0C0CFA03F7BC435E
:1004F00005FA03FC4CEA040491F803C0BCF1280F90
:1005000005D100F1080C08FA0CF8C2F8148091F833
:1005100003C0BCF1480F07D100F1080C4FF00108EF
:1005200008FA0CF8C2F81080401C0828CED354609A
:10053000BDE8F0810246002093680B400BB101201A
:1005400000E000207047416170470161704700BFC3
:10055000FEE700BFFEE770477047000029B1064A7A
:10056000D2690243044BDA6104E0034AD269824350
:10057000014BDA61704700000010024029B1064AC1
:1005800092690243044B9A6104E0034A92698243F0
:10059000014B9A617047000000100240704710B58F
:1005A00000F002F810BD00000CB500200190009092
:1005B0003348006840F480303149086000BF30485B
:1005C000006800F4003000900198401C01900098F1
:1005D00018B90198B0F5A06FF1D12948006800F46E
:1005E000003010B10120009001E000200090009840
:1005F000012843D12348006840F0100021490860D9
:100600000846006820F0030008600846006840F0D3
:10061000020008601A484068194948600846406866
:1006200048600846406840F480604860084640687A
:1006300020F47C1048600846406840F4E8104860A8
:100640000846006840F08070086000BF0C480068F1
:1006500000F000700028F9D00948406820F003003D
:10066000074948600846406840F00200486000BF03
:100670000348406800F00C000828F9D10CBD0000C8
:100680000010024000200240042808D14FF0E02171
:10069000096941F004014FF0E022116107E04FF0D9
:1006A000E021096921F004014FF0E0221161704757
:1006B0007047000010B51348006840F00100114970
:1006C000086008464068104908400E4948600846DE
:1006D00000680E4908400B4908600846006820F48D
:1006E000802008600846406820F4FE0048604FF40F
:1006F0001F008860FFF753FF4FF000600449086057
:1007000010BD0000001002400000FFF8FFFFF6FEE1
:1007100008ED00E021B1028842F08002028004E08E
:1007200002884FF67F731A400280704721B1028819
:1007300042F00102028004E002884FF6FE731A4084
:100740000280704731B1B0F8442042F40042A0F872
:10075000442005E0B0F84420C2F30E02A0F8442083
:100760007047000070B5002400220023058C4FF66E
:10077000FE7635400584028C8388048B4FF68F7596
:100780002C40B51E2C400D882C43751E2A400D8927
:100790002A434D882A43144DA8420BD0134DA8423A
:1007A00008D0134DA84205D0124DA84202D0124DD8
:1007B000A84213D14FF6F7752A404D892A434FF6C8
:1007C000FB752A408D882A434FF6FF652B404FF674
:1007D000FF552B408D892B43CD892B438380048388
:1007E000CD888586028470BD002C01400034014014
:1007F00000400140004401400048014070B5002421
:1008000000220023058C4FF6FF6635400584028CDC
:100810008388848B4FF68F752C404FF6FC752C40E7
:100820000D882C434FF6FF552A400D894FF6FF7671
:1008300006EA05252A434D8806EA05252A43154D73
:10084000A84202D0144DA8421DD14FF2FF752A4094
:100850004D894FF6FF7606EA05252A434FF6FF3508
:100860002A408D8806EA05252A434EF6FF752B405F
:100870004DF6FF752B408D8906EA05152B43CD8972
:1008800006EA05152B4383808483CD8885870284FF
:1008900070BD0000002C014000340140002202889D
:1008A0001D4B98420ED01D4B98420BD0B0F1804F9B
:1008B00008D01B4B984205D01A4B984202D01A4BD5
:1008C000984204D14FF68F731A404B881A43174B46
:1008D000984207D0164B984204D04FF6FF431A4077
:1008E000CB881A4302808B8883850B8803850A4B4B
:1008F00098420BD0094B984208D00E4B984205D035
:100900000D4B984202D00D4B984201D10B7A0386D1
:100910000123838270470000002C01400034014015
:100920000004004000080040000C0040001000409F
:1009300000140040004001400044014000480140D4
:1009400010B540F225511E4800F040F820B31C4875
:1009500000F066F8C4B21B48008800F40040D8B923
:100960001848008800F4804070B10A2C03D00020A1
:100970001449088022E01348008840F400401149DF
:10098000088000F04FF919E00D2C06D10D480088C1
:1009900040F480400B49088010E00A480088C0F30A
:1009A0000D0009490C5407480088401C054908807F
:1009B00008460088C72801DD0020088010BD00001F
:1009C000003801401C0000202000002070B50246C5
:1009D000002400230025002040F66A16B14200D111
:1009E00000BFC1F3421501F01F03012606FA03F30D
:1009F000012D02D19689334006E0022D02D1168ADC
:100A0000334001E0968A33400C12012606FA04F4C2
:100A10001688344013B10CB1012000E0002070BDF5
:100A200001468888C0F30800704700BFFEE7014612
:100A300000BF704710B56FF00400FFF725FE0A48AD
:100A400000680A49B0FBF1F00949087008460078CF
:100A500000EB4001C1EBC0104FF6FF7101EAC0008E
:100A60000449088010BD00000000002000127A0038
:100A700014000020160000200146114A12884A4343
:100A80004FF0E0235A6100229A611A46126942F03F
:100A900001021A6100BF4FF0E022106900F001026C
:100AA0001AB100F48032002AF5D04FF0E02212692A
:100AB00022F001024FF0E0231A6100229A61704790
:100AC0001600002000BF054A128802F04002002AEA
:100AD000F9D0C2B2014B1B1D1A807047003801408B
:100AE00008B501210820FFF749FD04208DF8030017
:100AF0001B20ADF8000003208DF802006946024873
:100B0000FFF78DFC08BD0000000C01407824002593
:100B10000026FFF7CFFDFFF78DFF00F01BFA00F076
:100B200021F9FFF7DDFF204600F0FAF94FF47A7063
:100B3000FFF7A2FF00F066FA00F0DCF96FE0082191
:100B40003748FFF7F7FC074610213548FFF7F2FC5E
:100B5000074357B308213248FFF7ECFC01280ED1B8
:100B6000641D502C01DA502004E0A02C01DDA020EF
:100B700000E020460446204600F0D2F9012510216D
:100B80002748FFF7D7FC012849D1641D502C01DA12
:100B9000502004E0A02C01DDA02000E02046044607
:100BA000204600F0BDF9012639E001211C48FFF77D
:100BB000C1FC012816D1012D03D10520FFF75CFFF0
:100BC0000025641E6E2C01DA6E2004E0822C01DD0B
:100BD000822000E020460446204600F0A1F90220D1
:100BE000FFF74AFF02210E48FFF7A4FC012816D1A7
:100BF000012E03D10520FFF73FFF0026641C6E2C59
:100C000001DA6E2004E0822C01DD822000E0204623
:100C10000446204600F084F90220FFF72DFF8EE7FE
:100C2000000C014010B534A13548FFF73DFB30B949
:100C30003448008840F001003249088057E032A172
:100C40002F48FFF731FB30B92E48007800F0FE0046
:100C50002C4908804BE02EA12948FFF725FB30B92D
:100C60002848008840F00200264908803FE02AA179
:100C70002348FFF719FB30B92248007800F0FD0047
:100C80002049088033E027A11D48FFF70DFB30B94C
:100C90001C48008840F004001A49088027E024A17D
:100CA0001748FFF701FB30B91648007800F0FB0049
:100CB000144908801BE021A11148FFF7F5FA30B96B
:100CC0001048008840F008000E4908800FE01DA180
:100CD0000B48FFF7E9FA30B90A48007800F0F7004E
:100CE0000849088003E0064918A0FFF773FA0020BE
:100CF0001B49088010BD0000706F73206F6E0000EC
:100D0000200000201E000020706F73206F666600B8
:100D100062696173206F6E0062696173206F66663D
:100D200000000000616E676C65206F6E00000000BF
:100D3000616E676C65206F666600000063616D2000
:100D40006F6E000063616D206F666600756E6B6E7E
:100D50006F77207369676E3A2025730A00000000E0
:100D60001C00002000B593B001210820FFF706FC0D
:100D700010208DF80B004FF40870ADF80800032028
:100D80008DF80A0002A95748FFF749FBC020ADF8CB
:100D9000040010208DF8070003208DF8060001A93B
:100DA0005048FFF73CFB01210420FFF7E7FB01213E
:100DB0000820FFF7E3FB01210220FFF7CFFB012111
:100DC0000420FFF7CBFB4020ADF8100018208DF871
:100DD000130003208DF8120004A94348FFF71FFBFE
:100DE0004FF48070ADF80C0018208DF80F00032030
:100DF0008DF80E0003A93B48FFF711FB42F20F707C
:100E0000ADF844004720ADF840000020ADF84600A2
:100E1000ADF8420010A93548FFF740FD42F20F70CF
:100E2000ADF838004720ADF834000020ADF83A00A6
:100E3000ADF836000DA92E48FFF730FD6020ADF863
:100E400024000120ADF826000020ADF82800ADF800
:100E50002A00ADF82C000220ADF82E000020ADF8DD
:100E60003000ADF8320009A92048FFF77BFC602074
:100E7000ADF814000120ADF816000020ADF8180000
:100E8000ADF81A00ADF81C000220ADF81E000020DD
:100E9000ADF82000ADF8220005A91548FFF7AEFC1B
:100EA00001211248FFF736FC01211048FFF74AFCE8
:100EB00001210E48FFF73AFC01210D48FFF72AFCFB
:100EC00001210B48FFF73EFC01210948FFF72EFCEA
:100ED00041F6573005493431088005493C310880D6
:100EE00013B000BD000C01400008014000040040A8
:100EF0000008004010B54FF400710848FFF725FBCB
:100F000020210648FFF71FFB40210448FFF71DFB87
:100F100080210248FFF717FB10BD0000000C0140C4
:100F20002DE9F0410446204600F004F90746074940
:100F300000F018F90646064900F07AF8054600F078
:100F4000D9F84FF080418886BDE8F0818FC23141E9
:100F50000000FA4300B589B001210420FFF70EFB21
:100F600001210846FFF7FAFA0120ADF80400182025
:100F70008DF8070003208DF8060001A92048FFF72F
:100F80004EFA44F61F60ADF81C004720ADF818007B
:100F90000020ADF81E00ADF81A0006A94FF0804001
:100FA000FFF77CFC6020ADF808000120ADF80A00D6
:100FB0000020ADF80C00ADF80E00ADF810000220D6
:100FC000ADF812000020ADF81400ADF8160002A92B
:100FD0004FF08040FFF7C6FB01218807FFF79AFB1F
:100FE00001218807FFF7AEFB01218807FFF79EFB71
:100FF00040F2DC504FF08041888609B000BD00000F
:101000000008014010B54FF400710848FFF79BFA43
:1010100020210648FFF797FA40210448FFF793FA8A
:1010200080210248FFF78FFA10BD0000000C01403C
:1010300090EA010F48BF81F0004100F16681421A39
:101040003CBF801A89184FEAD0524FF07F4C1CEAFF
:10105000410FA2EBD15318BF9CEA026F00F03B8016
:101060004FF0004C4CEA00204CEA012121FA03FC2D
:1010700010EB0C0C1ED202F1FF325FEA1C2040EB99
:10108000C25038BF70471CF07F0F4FEA400C18BFAA
:10109000BCF17F4F38BF7047C3F12003994008BFB0
:1010A00020F00100BCF17F4F38BF7047A0F1C04075
:1010B00000F01FB94FEA3C00000A40EBC25028BFC5
:1010C0001CF0FF0F4FEA400CE6D018BFBCF17F4F79
:1010D00038BF7047EAE79CEA026F05D010EA5C0F60
:1010E00008BF00F00040704710B500F0BCF800BF2A
:1010F00064FBBE3EC10DD1F19E0206DB4FEA002328
:1011000043F0004323FA02F07047004207D54FEA4C
:101110004001B1F1FE4F02D24FF00000704710B510
:1011200000F0A1F849922480002070476FEA200067
:101130007047000010F0004148BF4042B0FA80F311
:1011400010FA03F2C3F19D030BD051EAC35101EB36
:101150001220530638BF704700F1010008BF20F08D
:10116000010070474FF47F0C1CEAD0121EBF1CEA2E
:10117000D11392EA0C0F93EA0C0F00F0478090EA2B
:10118000010F48BF42F480724FF0004C4CEA00203F
:101190004CEA012102EB0302A0FB0113A2F50002BD
:1011A000002918BF43F001035B0028BF4FEA330357
:1011B00042EB22425FEA132C4CEBC2502EBFBCEB39
:1011C000436FB2F57C0F70474FEA036CBCF1004FE0
:1011D00008BF20F00100B2F57C0F38BF70470BD577
:1011E00082F0FF0212F5803FC8BF704700F1C04097
:1011F000D8BF00F00040704700F5000C5FEA4C0CCF
:1012000048BF7047B0F1C04000F073B890EA010FDA
:101210000CEAD11348BF42F48072624538BF63457F
:1012200004D280EA010000F00040704710B500F0E1
:101230001AF800BF8900013E00F007B800F009B8B5
:101240005FEA410C5FEA1C6C08D080EA010000F004
:1012500050B85FEA400C5FEA1C6CF6D14FF00040DA
:10126000A0F5800070470EF1020E2EF0030E5EF81E
:10127000044B244204D44FEA4102B2F17F4F11D80B
:101280004FEA4003B3F17F4F0CD80ED14FEAD07C28
:10129000B2F17F4F0CEB4C0C0CF1020C08BF4CEB85
:1012A000D17C04E04FF0080C01E04FEAD17C0CEB5C
:1012B0004C0324FA03F404F00704B4F1040C06D23E
:1012C0000EEB840CBDE810404CF0010C6047DFE8E9
:1012D0000CF0070802024FF00040A0F5800010BD9E
:1012E0000846420018BFD2F1807288BF00F000406B
:1012F00010BDFF2141EAD050C005704790EA010FB0
:1013000048BF81F000413FF59AAE421A04D882F0FE
:101310000042A0EB020011444FEAD0524FF07F4C44
:101320001CEA410FA2EBD15318BF9CEA026F4AD0CE
:101330004FF0004C4CEA00204CEA012121FA03FC5A
:10134000B0EB0C0C0FD412F0FE0F36D05FEA4C005D
:101350001DD5001240EBC25038BF70471CF03F0F44
:1013600018BF70470BE0A2F101025FEA1C2040EBBE
:10137000C25038BF70471CF07F0F18BF7047C3F1D1
:101380002003994014BF401E20F0010070478008E0
:101390004FEA122308BF7047B0FA80FCA2EB0C02A0
:1013A000CCF1280C60FA0CF093EA122F04BF00EB8A
:1013B000C25070474FEAC3707047130A5FEADC10EF
:1013C00008BF7047F6E79CEA026F04D010EA5C0F92
:1013D00008BF0020704710B5FFF745FF40DFF63E1D
:1013E00081F0004070470000081400080000002051
:1013F0002000000028010008281400082000002018
:10140000280700004401000800A24A040000000070
:1014100000000000010203040607080900000000A4
:08142000000000000000FF00C5
:04000005080001915D
:00000001FF
